{
  "contractName": "KrakowMeetup",
  "abi": [
    {
      "inputs": [],
      "stateMutability": "nonpayable",
      "type": "constructor"
    },
    {
      "anonymous": false,
      "inputs": [
        {
          "indexed": true,
          "internalType": "address",
          "name": "owner",
          "type": "address"
        },
        {
          "indexed": true,
          "internalType": "address",
          "name": "approved",
          "type": "address"
        },
        {
          "indexed": true,
          "internalType": "uint256",
          "name": "tokenId",
          "type": "uint256"
        }
      ],
      "name": "Approval",
      "type": "event"
    },
    {
      "anonymous": false,
      "inputs": [
        {
          "indexed": true,
          "internalType": "address",
          "name": "owner",
          "type": "address"
        },
        {
          "indexed": true,
          "internalType": "address",
          "name": "operator",
          "type": "address"
        },
        {
          "indexed": false,
          "internalType": "bool",
          "name": "approved",
          "type": "bool"
        }
      ],
      "name": "ApprovalForAll",
      "type": "event"
    },
    {
      "anonymous": false,
      "inputs": [
        {
          "indexed": true,
          "internalType": "address",
          "name": "previousOwner",
          "type": "address"
        },
        {
          "indexed": true,
          "internalType": "address",
          "name": "newOwner",
          "type": "address"
        }
      ],
      "name": "OwnershipTransferred",
      "type": "event"
    },
    {
      "anonymous": false,
      "inputs": [
        {
          "indexed": false,
          "internalType": "address",
          "name": "account",
          "type": "address"
        }
      ],
      "name": "Paused",
      "type": "event"
    },
    {
      "anonymous": false,
      "inputs": [
        {
          "indexed": true,
          "internalType": "uint256",
          "name": "requestForTokenId",
          "type": "uint256"
        }
      ],
      "name": "RequestedTokenURI",
      "type": "event"
    },
    {
      "anonymous": false,
      "inputs": [
        {
          "indexed": true,
          "internalType": "address",
          "name": "from",
          "type": "address"
        },
        {
          "indexed": true,
          "internalType": "address",
          "name": "to",
          "type": "address"
        },
        {
          "indexed": true,
          "internalType": "uint256",
          "name": "tokenId",
          "type": "uint256"
        }
      ],
      "name": "Transfer",
      "type": "event"
    },
    {
      "anonymous": false,
      "inputs": [
        {
          "indexed": false,
          "internalType": "address",
          "name": "account",
          "type": "address"
        }
      ],
      "name": "Unpaused",
      "type": "event"
    },
    {
      "inputs": [],
      "name": "MAX_ELEMENTS",
      "outputs": [
        {
          "internalType": "uint256",
          "name": "",
          "type": "uint256"
        }
      ],
      "stateMutability": "view",
      "type": "function",
      "constant": true
    },
    {
      "inputs": [],
      "name": "PRICE",
      "outputs": [
        {
          "internalType": "uint256",
          "name": "",
          "type": "uint256"
        }
      ],
      "stateMutability": "view",
      "type": "function",
      "constant": true
    },
    {
      "inputs": [
        {
          "internalType": "address",
          "name": "to",
          "type": "address"
        },
        {
          "internalType": "uint256",
          "name": "tokenId",
          "type": "uint256"
        }
      ],
      "name": "approve",
      "outputs": [],
      "stateMutability": "nonpayable",
      "type": "function"
    },
    {
      "inputs": [
        {
          "internalType": "address",
          "name": "owner",
          "type": "address"
        }
      ],
      "name": "balanceOf",
      "outputs": [
        {
          "internalType": "uint256",
          "name": "",
          "type": "uint256"
        }
      ],
      "stateMutability": "view",
      "type": "function",
      "constant": true
    },
    {
      "inputs": [
        {
          "internalType": "uint256",
          "name": "tokenId",
          "type": "uint256"
        }
      ],
      "name": "getApproved",
      "outputs": [
        {
          "internalType": "address",
          "name": "",
          "type": "address"
        }
      ],
      "stateMutability": "view",
      "type": "function",
      "constant": true
    },
    {
      "inputs": [
        {
          "internalType": "address",
          "name": "owner",
          "type": "address"
        },
        {
          "internalType": "address",
          "name": "operator",
          "type": "address"
        }
      ],
      "name": "isApprovedForAll",
      "outputs": [
        {
          "internalType": "bool",
          "name": "",
          "type": "bool"
        }
      ],
      "stateMutability": "view",
      "type": "function",
      "constant": true
    },
    {
      "inputs": [],
      "name": "name",
      "outputs": [
        {
          "internalType": "string",
          "name": "",
          "type": "string"
        }
      ],
      "stateMutability": "view",
      "type": "function",
      "constant": true
    },
    {
      "inputs": [],
      "name": "owner",
      "outputs": [
        {
          "internalType": "address",
          "name": "",
          "type": "address"
        }
      ],
      "stateMutability": "view",
      "type": "function",
      "constant": true
    },
    {
      "inputs": [
        {
          "internalType": "uint256",
          "name": "tokenId",
          "type": "uint256"
        }
      ],
      "name": "ownerOf",
      "outputs": [
        {
          "internalType": "address",
          "name": "",
          "type": "address"
        }
      ],
      "stateMutability": "view",
      "type": "function",
      "constant": true
    },
    {
      "inputs": [],
      "name": "paused",
      "outputs": [
        {
          "internalType": "bool",
          "name": "",
          "type": "bool"
        }
      ],
      "stateMutability": "view",
      "type": "function",
      "constant": true
    },
    {
      "inputs": [],
      "name": "renounceOwnership",
      "outputs": [],
      "stateMutability": "nonpayable",
      "type": "function"
    },
    {
      "inputs": [
        {
          "internalType": "address",
          "name": "from",
          "type": "address"
        },
        {
          "internalType": "address",
          "name": "to",
          "type": "address"
        },
        {
          "internalType": "uint256",
          "name": "tokenId",
          "type": "uint256"
        }
      ],
      "name": "safeTransferFrom",
      "outputs": [],
      "stateMutability": "nonpayable",
      "type": "function"
    },
    {
      "inputs": [
        {
          "internalType": "address",
          "name": "from",
          "type": "address"
        },
        {
          "internalType": "address",
          "name": "to",
          "type": "address"
        },
        {
          "internalType": "uint256",
          "name": "tokenId",
          "type": "uint256"
        },
        {
          "internalType": "bytes",
          "name": "_data",
          "type": "bytes"
        }
      ],
      "name": "safeTransferFrom",
      "outputs": [],
      "stateMutability": "nonpayable",
      "type": "function"
    },
    {
      "inputs": [
        {
          "internalType": "address",
          "name": "operator",
          "type": "address"
        },
        {
          "internalType": "bool",
          "name": "approved",
          "type": "bool"
        }
      ],
      "name": "setApprovalForAll",
      "outputs": [],
      "stateMutability": "nonpayable",
      "type": "function"
    },
    {
      "inputs": [],
      "name": "symbol",
      "outputs": [
        {
          "internalType": "string",
          "name": "",
          "type": "string"
        }
      ],
      "stateMutability": "view",
      "type": "function",
      "constant": true
    },
    {
      "inputs": [
        {
          "internalType": "uint256",
          "name": "index",
          "type": "uint256"
        }
      ],
      "name": "tokenByIndex",
      "outputs": [
        {
          "internalType": "uint256",
          "name": "",
          "type": "uint256"
        }
      ],
      "stateMutability": "view",
      "type": "function",
      "constant": true
    },
    {
      "inputs": [],
      "name": "tokenURIOperator",
      "outputs": [
        {
          "internalType": "address",
          "name": "",
          "type": "address"
        }
      ],
      "stateMutability": "view",
      "type": "function",
      "constant": true
    },
    {
      "inputs": [],
      "name": "totalSupply",
      "outputs": [
        {
          "internalType": "uint256",
          "name": "",
          "type": "uint256"
        }
      ],
      "stateMutability": "view",
      "type": "function",
      "constant": true
    },
    {
      "inputs": [
        {
          "internalType": "address",
          "name": "from",
          "type": "address"
        },
        {
          "internalType": "address",
          "name": "to",
          "type": "address"
        },
        {
          "internalType": "uint256",
          "name": "tokenId",
          "type": "uint256"
        }
      ],
      "name": "transferFrom",
      "outputs": [],
      "stateMutability": "nonpayable",
      "type": "function"
    },
    {
      "inputs": [
        {
          "internalType": "address",
          "name": "newOwner",
          "type": "address"
        }
      ],
      "name": "transferOwnership",
      "outputs": [],
      "stateMutability": "nonpayable",
      "type": "function"
    },
    {
      "inputs": [
        {
          "internalType": "address",
          "name": "_to",
          "type": "address"
        }
      ],
      "name": "mint",
      "outputs": [],
      "stateMutability": "payable",
      "type": "function",
      "payable": true
    },
    {
      "inputs": [
        {
          "internalType": "bool",
          "name": "state",
          "type": "bool"
        }
      ],
      "name": "setPaused",
      "outputs": [],
      "stateMutability": "nonpayable",
      "type": "function"
    },
    {
      "inputs": [
        {
          "internalType": "uint256",
          "name": "tokenId",
          "type": "uint256"
        }
      ],
      "name": "tokenURI",
      "outputs": [
        {
          "internalType": "string",
          "name": "",
          "type": "string"
        }
      ],
      "stateMutability": "view",
      "type": "function",
      "constant": true
    },
    {
      "inputs": [],
      "name": "totalMint",
      "outputs": [
        {
          "internalType": "uint256",
          "name": "",
          "type": "uint256"
        }
      ],
      "stateMutability": "view",
      "type": "function",
      "constant": true
    },
    {
      "inputs": [
        {
          "internalType": "uint256",
          "name": "tokenId",
          "type": "uint256"
        },
        {
          "internalType": "string",
          "name": "_tokenURI",
          "type": "string"
        }
      ],
      "name": "setTokenURI",
      "outputs": [],
      "stateMutability": "nonpayable",
      "type": "function"
    },
    {
      "inputs": [
        {
          "internalType": "address",
          "name": "_tokenURIOperator",
          "type": "address"
        }
      ],
      "name": "setTokenURIOperator",
      "outputs": [],
      "stateMutability": "nonpayable",
      "type": "function"
    },
    {
      "inputs": [
        {
          "internalType": "address",
          "name": "_address",
          "type": "address"
        },
        {
          "internalType": "uint256",
          "name": "_amount",
          "type": "uint256"
        }
      ],
      "name": "withdraw",
      "outputs": [],
      "stateMutability": "payable",
      "type": "function",
      "payable": true
    },
    {
      "inputs": [
        {
          "internalType": "address",
          "name": "owner",
          "type": "address"
        },
        {
          "internalType": "uint256",
          "name": "index",
          "type": "uint256"
        }
      ],
      "name": "tokenOfOwnerByIndex",
      "outputs": [
        {
          "internalType": "uint256",
          "name": "",
          "type": "uint256"
        }
      ],
      "stateMutability": "view",
      "type": "function",
      "constant": true
    },
    {
      "inputs": [
        {
          "internalType": "bytes4",
          "name": "interfaceId",
          "type": "bytes4"
        }
      ],
      "name": "supportsInterface",
      "outputs": [
        {
          "internalType": "bool",
          "name": "",
          "type": "bool"
        }
      ],
      "stateMutability": "view",
      "type": "function",
      "constant": true
    }
  ],
  "bytecode": "0x60806040526040600d556000600e553480156200001b57600080fd5b506040518060400160405280600d81526020017f4b72616b6f77204d6565747570000000000000000000000000000000000000008152506040518060400160405280600381526020017f4b4d5500000000000000000000000000000000000000000000000000000000008152508160009080519060200190620000a092919062000454565b508060019080519060200190620000b992919062000454565b505050620000dc620000d06200010f60201b60201c565b6200011760201b60201c565b6000600b60146101000a81548160ff021916908315150217905550620001096001620001dd60201b60201c565b62000732565b600033905090565b6000600b60009054906101000a900473ffffffffffffffffffffffffffffffffffffffff16905081600b60006101000a81548173ffffffffffffffffffffffffffffffffffffffff021916908373ffffffffffffffffffffffffffffffffffffffff1602179055508173ffffffffffffffffffffffffffffffffffffffff168173ffffffffffffffffffffffffffffffffffffffff167f8be0079c531659141344cd1fd0a4f28419497f9722a3daafe3b4186f6b6457e060405160405180910390a35050565b620001ed6200010f60201b60201c565b73ffffffffffffffffffffffffffffffffffffffff1662000213620002a460201b60201c565b73ffffffffffffffffffffffffffffffffffffffff16146200026c576040517f08c379a00000000000000000000000000000000000000000000000000000000081526004016200026390620005eb565b60405180910390fd5b60011515811515141562000290576200028a620002ce60201b60201c565b620002a1565b620002a06200038660201b60201c565b5b50565b6000600b60009054906101000a900473ffffffffffffffffffffffffffffffffffffffff16905090565b620002de6200043d60201b60201c565b1562000321576040517f08c379a00000000000000000000000000000000000000000000000000000000081526004016200031890620005c9565b60405180910390fd5b6001600b60146101000a81548160ff0219169083151502179055507f62e78cea01bee320cd4e420270b5ea74000d11b0c9f74754ebdbfc544b05a2586200036d6200010f60201b60201c565b6040516200037c91906200058a565b60405180910390a1565b620003966200043d60201b60201c565b620003d8576040517f08c379a0000000000000000000000000000000000000000000000000000000008152600401620003cf90620005a7565b60405180910390fd5b6000600b60146101000a81548160ff0219169083151502179055507f5db9ee0a495bf2e6ff9c91a7834c1ba4fdd244a5e8aa4e537bd38aeae4b073aa620004246200010f60201b60201c565b6040516200043391906200058a565b60405180910390a1565b6000600b60149054906101000a900460ff16905090565b828054620004629062000652565b90600052602060002090601f016020900481019282620004865760008555620004d2565b82601f10620004a157805160ff1916838001178555620004d2565b82800160010185558215620004d2579182015b82811115620004d1578251825591602001919060010190620004b4565b5b509050620004e19190620004e5565b5090565b5b8082111562000500576000816000905550600101620004e6565b5090565b6200050f816200061e565b82525050565b6000620005246014836200060d565b91506200053182620006b7565b602082019050919050565b60006200054b6010836200060d565b91506200055882620006e0565b602082019050919050565b6000620005726020836200060d565b91506200057f8262000709565b602082019050919050565b6000602082019050620005a1600083018462000504565b92915050565b60006020820190508181036000830152620005c28162000515565b9050919050565b60006020820190508181036000830152620005e4816200053c565b9050919050565b60006020820190508181036000830152620006068162000563565b9050919050565b600082825260208201905092915050565b60006200062b8262000632565b9050919050565b600073ffffffffffffffffffffffffffffffffffffffff82169050919050565b600060028204905060018216806200066b57607f821691505b6020821081141562000682576200068162000688565b5b50919050565b7f4e487b7100000000000000000000000000000000000000000000000000000000600052602260045260246000fd5b7f5061757361626c653a206e6f7420706175736564000000000000000000000000600082015250565b7f5061757361626c653a2070617573656400000000000000000000000000000000600082015250565b7f4f776e61626c653a2063616c6c6572206973206e6f7420746865206f776e6572600082015250565b61457c80620007426000396000f3fe6080604052600436106101c25760003560e01c80636352211e116100f757806395d89b4111610095578063c87b56dd11610064578063c87b56dd14610633578063e985e9c514610670578063f2fde38b146106ad578063f3fef3a3146106d6576101c2565b806395d89b411461058b578063a22cb465146105b6578063a69180d7146105df578063b88d4fde1461060a576101c2565b806370a08231116100d157806370a08231146104e1578063715018a61461051e5780638d859f3e146105355780638da5cb5b14610560576101c2565b80636352211e1461045f57806364da50ba1461049c5780636a627842146104c5576101c2565b806323b872dd1161016457806342842e0e1161013e57806342842e0e146103a35780634f6ccce7146103cc57806359a7715a146104095780635c975abb14610434576101c2565b806323b872dd146103125780632f745c591461033b5780633502a71614610378576101c2565b8063095ea7b3116101a0578063095ea7b31461026c578063162094c41461029557806316c38b3c146102be57806318160ddd146102e7576101c2565b806301ffc9a7146101c757806306fdde0314610204578063081812fc1461022f575b600080fd5b3480156101d357600080fd5b506101ee60048036038101906101e99190612f3b565b6106f2565b6040516101fb9190613585565b60405180910390f35b34801561021057600080fd5b50610219610704565b60405161022691906135a0565b60405180910390f35b34801561023b57600080fd5b5061025660048036038101906102519190612f95565b610796565b604051610263919061351e565b60405180910390f35b34801561027857600080fd5b50610293600480360381019061028e9190612ece565b61081b565b005b3480156102a157600080fd5b506102bc60048036038101906102b79190612fc2565b610933565b005b3480156102ca57600080fd5b506102e560048036038101906102e09190612f0e565b610a1c565b005b3480156102f357600080fd5b506102fc610abe565b6040516103099190613942565b60405180910390f35b34801561031e57600080fd5b5061033960048036038101906103349190612db8565b610acb565b005b34801561034757600080fd5b50610362600480360381019061035d9190612ece565b610b2b565b60405161036f9190613942565b60405180910390f35b34801561038457600080fd5b5061038d610b3f565b60405161039a9190613942565b60405180910390f35b3480156103af57600080fd5b506103ca60048036038101906103c59190612db8565b610b45565b005b3480156103d857600080fd5b506103f360048036038101906103ee9190612f95565b610b65565b6040516104009190613942565b60405180910390f35b34801561041557600080fd5b5061041e610bd6565b60405161042b9190613942565b60405180910390f35b34801561044057600080fd5b50610449610be5565b6040516104569190613585565b60405180910390f35b34801561046b57600080fd5b5061048660048036038101906104819190612f95565b610bfc565b604051610493919061351e565b60405180910390f35b3480156104a857600080fd5b506104c360048036038101906104be9190612d4b565b610cae565b005b6104df60048036038101906104da9190612d4b565b610d6e565b005b3480156104ed57600080fd5b5061050860048036038101906105039190612d4b565b610e9d565b6040516105159190613942565b60405180910390f35b34801561052a57600080fd5b50610533610f55565b005b34801561054157600080fd5b5061054a610fdd565b6040516105579190613942565b60405180910390f35b34801561056c57600080fd5b50610575610fe3565b604051610582919061351e565b60405180910390f35b34801561059757600080fd5b506105a061100d565b6040516105ad91906135a0565b60405180910390f35b3480156105c257600080fd5b506105dd60048036038101906105d89190612e8e565b61109f565b005b3480156105eb57600080fd5b506105f4611220565b604051610601919061351e565b60405180910390f35b34801561061657600080fd5b50610631600480360381019061062c9190612e0b565b611246565b005b34801561063f57600080fd5b5061065a60048036038101906106559190612f95565b6112a8565b60405161066791906135a0565b60405180910390f35b34801561067c57600080fd5b5061069760048036038101906106929190612d78565b6112ba565b6040516106a49190613585565b60405180910390f35b3480156106b957600080fd5b506106d460048036038101906106cf9190612d4b565b61134e565b005b6106f060048036038101906106eb9190612ece565b611446565b005b60006106fd82611586565b9050919050565b60606000805461071390613ba3565b80601f016020809104026020016040519081016040528092919081815260200182805461073f90613ba3565b801561078c5780601f106107615761010080835404028352916020019161078c565b820191906000526020600020905b81548152906001019060200180831161076f57829003601f168201915b5050505050905090565b60006107a182611600565b6107e0576040517f08c379a00000000000000000000000000000000000000000000000000000000081526004016107d790613802565b60405180910390fd5b6004600083815260200190815260200160002060009054906101000a900473ffffffffffffffffffffffffffffffffffffffff169050919050565b600061082682610bfc565b90508073ffffffffffffffffffffffffffffffffffffffff168373ffffffffffffffffffffffffffffffffffffffff161415610897576040517f08c379a000000000000000000000000000000000000000000000000000000000815260040161088e90613882565b60405180910390fd5b8073ffffffffffffffffffffffffffffffffffffffff166108b661166c565b73ffffffffffffffffffffffffffffffffffffffff1614806108e557506108e4816108df61166c565b6112ba565b5b610924576040517f08c379a000000000000000000000000000000000000000000000000000000000815260040161091b90613722565b60405180910390fd5b61092e8383611674565b505050565b61093b610fe3565b73ffffffffffffffffffffffffffffffffffffffff1661095961166c565b73ffffffffffffffffffffffffffffffffffffffff1614806109cf5750600f60009054906101000a900473ffffffffffffffffffffffffffffffffffffffff1673ffffffffffffffffffffffffffffffffffffffff166109b761166c565b73ffffffffffffffffffffffffffffffffffffffff16145b610a0e576040517f08c379a0000000000000000000000000000000000000000000000000000000008152600401610a0590613602565b60405180910390fd5b610a18828261172d565b5050565b610a2461166c565b73ffffffffffffffffffffffffffffffffffffffff16610a42610fe3565b73ffffffffffffffffffffffffffffffffffffffff1614610a98576040517f08c379a0000000000000000000000000000000000000000000000000000000008152600401610a8f90613822565b60405180910390fd5b600115158115151415610ab257610aad61173b565b610abb565b610aba6117de565b5b50565b6000600980549050905090565b610adc610ad661166c565b82611880565b610b1b576040517f08c379a0000000000000000000000000000000000000000000000000000000008152600401610b12906138e2565b60405180910390fd5b610b2683838361195e565b505050565b6000610b378383611bba565b905092915050565b600d5481565b610b6083838360405180602001604052806000815250611246565b505050565b6000610b6f610abe565b8210610bb0576040517f08c379a0000000000000000000000000000000000000000000000000000000008152600401610ba790613902565b60405180910390fd5b60098281548110610bc457610bc3613d3c565b5b90600052602060002001549050919050565b6000610be0611c5f565b905090565b6000600b60149054906101000a900460ff16905090565b6000806002600084815260200190815260200160002060009054906101000a900473ffffffffffffffffffffffffffffffffffffffff169050600073ffffffffffffffffffffffffffffffffffffffff168173ffffffffffffffffffffffffffffffffffffffff161415610ca5576040517f08c379a0000000000000000000000000000000000000000000000000000000008152600401610c9c90613762565b60405180910390fd5b80915050919050565b610cb661166c565b73ffffffffffffffffffffffffffffffffffffffff16610cd4610fe3565b73ffffffffffffffffffffffffffffffffffffffff1614610d2a576040517f08c379a0000000000000000000000000000000000000000000000000000000008152600401610d2190613822565b60405180910390fd5b80600f60006101000a81548173ffffffffffffffffffffffffffffffffffffffff021916908373ffffffffffffffffffffffffffffffffffffffff16021790555050565b600e54341015610db3576040517f08c379a0000000000000000000000000000000000000000000000000000000008152600401610daa906138c2565b60405180910390fd5b600d54610dbe611c5f565b1115610dff576040517f08c379a0000000000000000000000000000000000000000000000000000000008152600401610df6906137c2565b60405180910390fd5b6000610e0a82610e9d565b14610e4a576040517f08c379a0000000000000000000000000000000000000000000000000000000008152600401610e4190613922565b60405180910390fd5b6000610e56600c611c70565b9050610e62600c611c7e565b610e6c8282611c94565b807f594a48269e2d835ac2cc38e240cb7a3e5e5d440ec761911b469dadad2de2b35e60405160405180910390a25050565b60008073ffffffffffffffffffffffffffffffffffffffff168273ffffffffffffffffffffffffffffffffffffffff161415610f0e576040517f08c379a0000000000000000000000000000000000000000000000000000000008152600401610f0590613742565b60405180910390fd5b600360008373ffffffffffffffffffffffffffffffffffffffff1673ffffffffffffffffffffffffffffffffffffffff168152602001908152602001600020549050919050565b610f5d61166c565b73ffffffffffffffffffffffffffffffffffffffff16610f7b610fe3565b73ffffffffffffffffffffffffffffffffffffffff1614610fd1576040517f08c379a0000000000000000000000000000000000000000000000000000000008152600401610fc890613822565b60405180910390fd5b610fdb6000611cb2565b565b600e5481565b6000600b60009054906101000a900473ffffffffffffffffffffffffffffffffffffffff16905090565b60606001805461101c90613ba3565b80601f016020809104026020016040519081016040528092919081815260200182805461104890613ba3565b80156110955780601f1061106a57610100808354040283529160200191611095565b820191906000526020600020905b81548152906001019060200180831161107857829003601f168201915b5050505050905090565b6110a761166c565b73ffffffffffffffffffffffffffffffffffffffff168273ffffffffffffffffffffffffffffffffffffffff161415611115576040517f08c379a000000000000000000000000000000000000000000000000000000000815260040161110c906136c2565b60405180910390fd5b806005600061112261166c565b73ffffffffffffffffffffffffffffffffffffffff1673ffffffffffffffffffffffffffffffffffffffff16815260200190815260200160002060008473ffffffffffffffffffffffffffffffffffffffff1673ffffffffffffffffffffffffffffffffffffffff16815260200190815260200160002060006101000a81548160ff0219169083151502179055508173ffffffffffffffffffffffffffffffffffffffff166111cf61166c565b73ffffffffffffffffffffffffffffffffffffffff167f17307eab39ab6107e8899845ad3d59bd9653f200f220920489ca2b5937696c31836040516112149190613585565b60405180910390a35050565b600f60009054906101000a900473ffffffffffffffffffffffffffffffffffffffff1681565b61125761125161166c565b83611880565b611296576040517f08c379a000000000000000000000000000000000000000000000000000000000815260040161128d906138e2565b60405180910390fd5b6112a284848484611d78565b50505050565b60606112b382611dd4565b9050919050565b6000600560008473ffffffffffffffffffffffffffffffffffffffff1673ffffffffffffffffffffffffffffffffffffffff16815260200190815260200160002060008373ffffffffffffffffffffffffffffffffffffffff1673ffffffffffffffffffffffffffffffffffffffff16815260200190815260200160002060009054906101000a900460ff16905092915050565b61135661166c565b73ffffffffffffffffffffffffffffffffffffffff16611374610fe3565b73ffffffffffffffffffffffffffffffffffffffff16146113ca576040517f08c379a00000000000000000000000000000000000000000000000000000000081526004016113c190613822565b60405180910390fd5b600073ffffffffffffffffffffffffffffffffffffffff168173ffffffffffffffffffffffffffffffffffffffff16141561143a576040517f08c379a000000000000000000000000000000000000000000000000000000000815260040161143190613662565b60405180910390fd5b61144381611cb2565b50565b61144e61166c565b73ffffffffffffffffffffffffffffffffffffffff1661146c610fe3565b73ffffffffffffffffffffffffffffffffffffffff16146114c2576040517f08c379a00000000000000000000000000000000000000000000000000000000081526004016114b990613822565b60405180910390fd5b6000479050600081116114d457600080fd5b60008373ffffffffffffffffffffffffffffffffffffffff16836040516114fa90613509565b60006040518083038185875af1925050503d8060008114611537576040519150601f19603f3d011682016040523d82523d6000602084013e61153c565b606091505b5050905080611580576040517f08c379a0000000000000000000000000000000000000000000000000000000008152600401611577906138a2565b60405180910390fd5b50505050565b60007f780e9d63000000000000000000000000000000000000000000000000000000007bffffffffffffffffffffffffffffffffffffffffffffffffffffffff1916827bffffffffffffffffffffffffffffffffffffffffffffffffffffffff191614806115f957506115f882611f26565b5b9050919050565b60008073ffffffffffffffffffffffffffffffffffffffff166002600084815260200190815260200160002060009054906101000a900473ffffffffffffffffffffffffffffffffffffffff1673ffffffffffffffffffffffffffffffffffffffff1614159050919050565b600033905090565b816004600083815260200190815260200160002060006101000a81548173ffffffffffffffffffffffffffffffffffffffff021916908373ffffffffffffffffffffffffffffffffffffffff160217905550808273ffffffffffffffffffffffffffffffffffffffff166116e783610bfc565b73ffffffffffffffffffffffffffffffffffffffff167f8c5be1e5ebec7d5bd14f71427d1e84f3dd0314c0f7b2291e5b200ac8c7c3b92560405160405180910390a45050565b6117378282612008565b5050565b611743610be5565b15611783576040517f08c379a000000000000000000000000000000000000000000000000000000000815260040161177a90613702565b60405180910390fd5b6001600b60146101000a81548160ff0219169083151502179055507f62e78cea01bee320cd4e420270b5ea74000d11b0c9f74754ebdbfc544b05a2586117c761166c565b6040516117d4919061351e565b60405180910390a1565b6117e6610be5565b611825576040517f08c379a000000000000000000000000000000000000000000000000000000000815260040161181c906135e2565b60405180910390fd5b6000600b60146101000a81548160ff0219169083151502179055507f5db9ee0a495bf2e6ff9c91a7834c1ba4fdd244a5e8aa4e537bd38aeae4b073aa61186961166c565b604051611876919061351e565b60405180910390a1565b600061188b82611600565b6118ca576040517f08c379a00000000000000000000000000000000000000000000000000000000081526004016118c1906136e2565b60405180910390fd5b60006118d583610bfc565b90508073ffffffffffffffffffffffffffffffffffffffff168473ffffffffffffffffffffffffffffffffffffffff16148061194457508373ffffffffffffffffffffffffffffffffffffffff1661192c84610796565b73ffffffffffffffffffffffffffffffffffffffff16145b80611955575061195481856112ba565b5b91505092915050565b8273ffffffffffffffffffffffffffffffffffffffff1661197e82610bfc565b73ffffffffffffffffffffffffffffffffffffffff16146119d4576040517f08c379a00000000000000000000000000000000000000000000000000000000081526004016119cb90613842565b60405180910390fd5b600073ffffffffffffffffffffffffffffffffffffffff168273ffffffffffffffffffffffffffffffffffffffff161415611a44576040517f08c379a0000000000000000000000000000000000000000000000000000000008152600401611a3b906136a2565b60405180910390fd5b611a4f83838361207c565b611a5a600082611674565b6001600360008573ffffffffffffffffffffffffffffffffffffffff1673ffffffffffffffffffffffffffffffffffffffff1681526020019081526020016000206000828254611aaa9190613ab9565b925050819055506001600360008473ffffffffffffffffffffffffffffffffffffffff1673ffffffffffffffffffffffffffffffffffffffff1681526020019081526020016000206000828254611b019190613a32565b92505081905550816002600083815260200190815260200160002060006101000a81548173ffffffffffffffffffffffffffffffffffffffff021916908373ffffffffffffffffffffffffffffffffffffffff160217905550808273ffffffffffffffffffffffffffffffffffffffff168473ffffffffffffffffffffffffffffffffffffffff167fddf252ad1be2c89b69c2b068fc378daa952ba7f163c4a11628f55a4df523b3ef60405160405180910390a4505050565b6000611bc583610e9d565b8210611c06576040517f08c379a0000000000000000000000000000000000000000000000000000000008152600401611bfd90613622565b60405180910390fd5b600760008473ffffffffffffffffffffffffffffffffffffffff1673ffffffffffffffffffffffffffffffffffffffff168152602001908152602001600020600083815260200190815260200160002054905092915050565b6000611c6b600c611c70565b905090565b600081600001549050919050565b6001816000016000828254019250508190555050565b611cae82826040518060200160405280600081525061208c565b5050565b6000600b60009054906101000a900473ffffffffffffffffffffffffffffffffffffffff16905081600b60006101000a81548173ffffffffffffffffffffffffffffffffffffffff021916908373ffffffffffffffffffffffffffffffffffffffff1602179055508173ffffffffffffffffffffffffffffffffffffffff168173ffffffffffffffffffffffffffffffffffffffff167f8be0079c531659141344cd1fd0a4f28419497f9722a3daafe3b4186f6b6457e060405160405180910390a35050565b611d8384848461195e565b611d8f848484846120e7565b611dce576040517f08c379a0000000000000000000000000000000000000000000000000000000008152600401611dc590613642565b60405180910390fd5b50505050565b6060611ddf82611600565b611e1e576040517f08c379a0000000000000000000000000000000000000000000000000000000008152600401611e15906137e2565b60405180910390fd5b6000600660008481526020019081526020016000208054611e3e90613ba3565b80601f0160208091040260200160405190810160405280929190818152602001828054611e6a90613ba3565b8015611eb75780601f10611e8c57610100808354040283529160200191611eb7565b820191906000526020600020905b815481529060010190602001808311611e9a57829003601f168201915b505050505090506000611ec861227e565b9050600081511415611ede578192505050611f21565b600082511115611f13578082604051602001611efb9291906134e5565b60405160208183030381529060405292505050611f21565b611f1c84612295565b925050505b919050565b60007f80ac58cd000000000000000000000000000000000000000000000000000000007bffffffffffffffffffffffffffffffffffffffffffffffffffffffff1916827bffffffffffffffffffffffffffffffffffffffffffffffffffffffff19161480611ff157507f5b5e139f000000000000000000000000000000000000000000000000000000007bffffffffffffffffffffffffffffffffffffffffffffffffffffffff1916827bffffffffffffffffffffffffffffffffffffffffffffffffffffffff1916145b8061200157506120008261233c565b5b9050919050565b61201182611600565b612050576040517f08c379a000000000000000000000000000000000000000000000000000000000815260040161204790613782565b60405180910390fd5b80600660008481526020019081526020016000209080519060200190612077929190612b5f565b505050565b6120878383836123a6565b505050565b61209683836123fe565b6120a360008484846120e7565b6120e2576040517f08c379a00000000000000000000000000000000000000000000000000000000081526004016120d990613642565b60405180910390fd5b505050565b60006121088473ffffffffffffffffffffffffffffffffffffffff166125cc565b15612271578373ffffffffffffffffffffffffffffffffffffffff1663150b7a0261213161166c565b8786866040518563ffffffff1660e01b81526004016121539493929190613539565b602060405180830381600087803b15801561216d57600080fd5b505af192505050801561219e57506040513d601f19601f8201168201806040525081019061219b9190612f68565b60015b612221573d80600081146121ce576040519150601f19603f3d011682016040523d82523d6000602084013e6121d3565b606091505b50600081511415612219576040517f08c379a000000000000000000000000000000000000000000000000000000000815260040161221090613642565b60405180910390fd5b805181602001fd5b63150b7a0260e01b7bffffffffffffffffffffffffffffffffffffffffffffffffffffffff1916817bffffffffffffffffffffffffffffffffffffffffffffffffffffffff191614915050612276565b600190505b949350505050565b606060405180602001604052806000815250905090565b60606122a082611600565b6122df576040517f08c379a00000000000000000000000000000000000000000000000000000000081526004016122d690613862565b60405180910390fd5b60006122e961227e565b905060008151116123095760405180602001604052806000815250612334565b80612313846125df565b6040516020016123249291906134e5565b6040516020818303038152906040525b915050919050565b60007f01ffc9a7000000000000000000000000000000000000000000000000000000007bffffffffffffffffffffffffffffffffffffffffffffffffffffffff1916827bffffffffffffffffffffffffffffffffffffffffffffffffffffffff1916149050919050565b6123b1838383612740565b6123b9610be5565b156123f9576040517f08c379a00000000000000000000000000000000000000000000000000000000081526004016123f0906135c2565b60405180910390fd5b505050565b600073ffffffffffffffffffffffffffffffffffffffff168273ffffffffffffffffffffffffffffffffffffffff16141561246e576040517f08c379a0000000000000000000000000000000000000000000000000000000008152600401612465906137a2565b60405180910390fd5b61247781611600565b156124b7576040517f08c379a00000000000000000000000000000000000000000000000000000000081526004016124ae90613682565b60405180910390fd5b6124c36000838361207c565b6001600360008473ffffffffffffffffffffffffffffffffffffffff1673ffffffffffffffffffffffffffffffffffffffff16815260200190815260200160002060008282546125139190613a32565b92505081905550816002600083815260200190815260200160002060006101000a81548173ffffffffffffffffffffffffffffffffffffffff021916908373ffffffffffffffffffffffffffffffffffffffff160217905550808273ffffffffffffffffffffffffffffffffffffffff16600073ffffffffffffffffffffffffffffffffffffffff167fddf252ad1be2c89b69c2b068fc378daa952ba7f163c4a11628f55a4df523b3ef60405160405180910390a45050565b600080823b905060008111915050919050565b60606000821415612627576040518060400160405280600181526020017f3000000000000000000000000000000000000000000000000000000000000000815250905061273b565b600082905060005b6000821461265957808061264290613c06565b915050600a826126529190613a88565b915061262f565b60008167ffffffffffffffff81111561267557612674613d6b565b5b6040519080825280601f01601f1916602001820160405280156126a75781602001600182028036833780820191505090505b5090505b60008514612734576001826126c09190613ab9565b9150600a856126cf9190613c4f565b60306126db9190613a32565b60f81b8183815181106126f1576126f0613d3c565b5b60200101907effffffffffffffffffffffffffffffffffffffffffffffffffffffffffffff1916908160001a905350600a8561272d9190613a88565b94506126ab565b8093505050505b919050565b61274b838383612854565b600073ffffffffffffffffffffffffffffffffffffffff168373ffffffffffffffffffffffffffffffffffffffff16141561278e5761278981612859565b6127cd565b8173ffffffffffffffffffffffffffffffffffffffff168373ffffffffffffffffffffffffffffffffffffffff16146127cc576127cb83826128a2565b5b5b600073ffffffffffffffffffffffffffffffffffffffff168273ffffffffffffffffffffffffffffffffffffffff1614156128105761280b81612a0f565b61284f565b8273ffffffffffffffffffffffffffffffffffffffff168273ffffffffffffffffffffffffffffffffffffffff161461284e5761284d8282612ae0565b5b5b505050565b505050565b600980549050600a600083815260200190815260200160002081905550600981908060018154018082558091505060019003906000526020600020016000909190919091505550565b600060016128af84610e9d565b6128b99190613ab9565b905060006008600084815260200190815260200160002054905081811461299e576000600760008673ffffffffffffffffffffffffffffffffffffffff1673ffffffffffffffffffffffffffffffffffffffff168152602001908152602001600020600084815260200190815260200160002054905080600760008773ffffffffffffffffffffffffffffffffffffffff1673ffffffffffffffffffffffffffffffffffffffff168152602001908152602001600020600084815260200190815260200160002081905550816008600083815260200190815260200160002081905550505b6008600084815260200190815260200160002060009055600760008573ffffffffffffffffffffffffffffffffffffffff1673ffffffffffffffffffffffffffffffffffffffff16815260200190815260200160002060008381526020019081526020016000206000905550505050565b60006001600980549050612a239190613ab9565b90506000600a6000848152602001908152602001600020549050600060098381548110612a5357612a52613d3c565b5b906000526020600020015490508060098381548110612a7557612a74613d3c565b5b906000526020600020018190555081600a600083815260200190815260200160002081905550600a6000858152602001908152602001600020600090556009805480612ac457612ac3613d0d565b5b6001900381819060005260206000200160009055905550505050565b6000612aeb83610e9d565b905081600760008573ffffffffffffffffffffffffffffffffffffffff1673ffffffffffffffffffffffffffffffffffffffff168152602001908152602001600020600083815260200190815260200160002081905550806008600084815260200190815260200160002081905550505050565b828054612b6b90613ba3565b90600052602060002090601f016020900481019282612b8d5760008555612bd4565b82601f10612ba657805160ff1916838001178555612bd4565b82800160010185558215612bd4579182015b82811115612bd3578251825591602001919060010190612bb8565b5b509050612be19190612be5565b5090565b5b80821115612bfe576000816000905550600101612be6565b5090565b6000612c15612c1084613982565b61395d565b905082815260208101848484011115612c3157612c30613d9f565b5b612c3c848285613b61565b509392505050565b6000612c57612c52846139b3565b61395d565b905082815260208101848484011115612c7357612c72613d9f565b5b612c7e848285613b61565b509392505050565b600081359050612c95816144ea565b92915050565b600081359050612caa81614501565b92915050565b600081359050612cbf81614518565b92915050565b600081519050612cd481614518565b92915050565b600082601f830112612cef57612cee613d9a565b5b8135612cff848260208601612c02565b91505092915050565b600082601f830112612d1d57612d1c613d9a565b5b8135612d2d848260208601612c44565b91505092915050565b600081359050612d458161452f565b92915050565b600060208284031215612d6157612d60613da9565b5b6000612d6f84828501612c86565b91505092915050565b60008060408385031215612d8f57612d8e613da9565b5b6000612d9d85828601612c86565b9250506020612dae85828601612c86565b9150509250929050565b600080600060608486031215612dd157612dd0613da9565b5b6000612ddf86828701612c86565b9350506020612df086828701612c86565b9250506040612e0186828701612d36565b9150509250925092565b60008060008060808587031215612e2557612e24613da9565b5b6000612e3387828801612c86565b9450506020612e4487828801612c86565b9350506040612e5587828801612d36565b925050606085013567ffffffffffffffff811115612e7657612e75613da4565b5b612e8287828801612cda565b91505092959194509250565b60008060408385031215612ea557612ea4613da9565b5b6000612eb385828601612c86565b9250506020612ec485828601612c9b565b9150509250929050565b60008060408385031215612ee557612ee4613da9565b5b6000612ef385828601612c86565b9250506020612f0485828601612d36565b9150509250929050565b600060208284031215612f2457612f23613da9565b5b6000612f3284828501612c9b565b91505092915050565b600060208284031215612f5157612f50613da9565b5b6000612f5f84828501612cb0565b91505092915050565b600060208284031215612f7e57612f7d613da9565b5b6000612f8c84828501612cc5565b91505092915050565b600060208284031215612fab57612faa613da9565b5b6000612fb984828501612d36565b91505092915050565b60008060408385031215612fd957612fd8613da9565b5b6000612fe785828601612d36565b925050602083013567ffffffffffffffff81111561300857613007613da4565b5b61301485828601612d08565b9150509250929050565b61302781613aed565b82525050565b61303681613aff565b82525050565b6000613047826139e4565b61305181856139fa565b9350613061818560208601613b70565b61306a81613dae565b840191505092915050565b6000613080826139ef565b61308a8185613a16565b935061309a818560208601613b70565b6130a381613dae565b840191505092915050565b60006130b9826139ef565b6130c38185613a27565b93506130d3818560208601613b70565b80840191505092915050565b60006130ec602b83613a16565b91506130f782613dbf565b604082019050919050565b600061310f601483613a16565b915061311a82613e0e565b602082019050919050565b6000613132602583613a16565b915061313d82613e37565b604082019050919050565b6000613155602b83613a16565b915061316082613e86565b604082019050919050565b6000613178603283613a16565b915061318382613ed5565b604082019050919050565b600061319b602683613a16565b91506131a682613f24565b604082019050919050565b60006131be601c83613a16565b91506131c982613f73565b602082019050919050565b60006131e1602483613a16565b91506131ec82613f9c565b604082019050919050565b6000613204601983613a16565b915061320f82613feb565b602082019050919050565b6000613227602c83613a16565b915061323282614014565b604082019050919050565b600061324a601083613a16565b915061325582614063565b602082019050919050565b600061326d603883613a16565b91506132788261408c565b604082019050919050565b6000613290602a83613a16565b915061329b826140db565b604082019050919050565b60006132b3602983613a16565b91506132be8261412a565b604082019050919050565b60006132d6602e83613a16565b91506132e182614179565b604082019050919050565b60006132f9602083613a16565b9150613304826141c8565b602082019050919050565b600061331c600883613a16565b9150613327826141f1565b602082019050919050565b600061333f603183613a16565b915061334a8261421a565b604082019050919050565b6000613362602c83613a16565b915061336d82614269565b604082019050919050565b6000613385602083613a16565b9150613390826142b8565b602082019050919050565b60006133a8602983613a16565b91506133b3826142e1565b604082019050919050565b60006133cb602f83613a16565b91506133d682614330565b604082019050919050565b60006133ee602183613a16565b91506133f98261437f565b604082019050919050565b6000613411600083613a0b565b915061341c826143ce565b600082019050919050565b6000613434601083613a16565b915061343f826143d1565b602082019050919050565b6000613457600d83613a16565b9150613462826143fa565b602082019050919050565b600061347a603183613a16565b915061348582614423565b604082019050919050565b600061349d602c83613a16565b91506134a882614472565b604082019050919050565b60006134c0601c83613a16565b91506134cb826144c1565b602082019050919050565b6134df81613b57565b82525050565b60006134f182856130ae565b91506134fd82846130ae565b91508190509392505050565b600061351482613404565b9150819050919050565b6000602082019050613533600083018461301e565b92915050565b600060808201905061354e600083018761301e565b61355b602083018661301e565b61356860408301856134d6565b818103606083015261357a818461303c565b905095945050505050565b600060208201905061359a600083018461302d565b92915050565b600060208201905081810360008301526135ba8184613075565b905092915050565b600060208201905081810360008301526135db816130df565b9050919050565b600060208201905081810360008301526135fb81613102565b9050919050565b6000602082019050818103600083015261361b81613125565b9050919050565b6000602082019050818103600083015261363b81613148565b9050919050565b6000602082019050818103600083015261365b8161316b565b9050919050565b6000602082019050818103600083015261367b8161318e565b9050919050565b6000602082019050818103600083015261369b816131b1565b9050919050565b600060208201905081810360008301526136bb816131d4565b9050919050565b600060208201905081810360008301526136db816131f7565b9050919050565b600060208201905081810360008301526136fb8161321a565b9050919050565b6000602082019050818103600083015261371b8161323d565b9050919050565b6000602082019050818103600083015261373b81613260565b9050919050565b6000602082019050818103600083015261375b81613283565b9050919050565b6000602082019050818103600083015261377b816132a6565b9050919050565b6000602082019050818103600083015261379b816132c9565b9050919050565b600060208201905081810360008301526137bb816132ec565b9050919050565b600060208201905081810360008301526137db8161330f565b9050919050565b600060208201905081810360008301526137fb81613332565b9050919050565b6000602082019050818103600083015261381b81613355565b9050919050565b6000602082019050818103600083015261383b81613378565b9050919050565b6000602082019050818103600083015261385b8161339b565b9050919050565b6000602082019050818103600083015261387b816133be565b9050919050565b6000602082019050818103600083015261389b816133e1565b9050919050565b600060208201905081810360008301526138bb81613427565b9050919050565b600060208201905081810360008301526138db8161344a565b9050919050565b600060208201905081810360008301526138fb8161346d565b9050919050565b6000602082019050818103600083015261391b81613490565b9050919050565b6000602082019050818103600083015261393b816134b3565b9050919050565b600060208201905061395760008301846134d6565b92915050565b6000613967613978565b90506139738282613bd5565b919050565b6000604051905090565b600067ffffffffffffffff82111561399d5761399c613d6b565b5b6139a682613dae565b9050602081019050919050565b600067ffffffffffffffff8211156139ce576139cd613d6b565b5b6139d782613dae565b9050602081019050919050565b600081519050919050565b600081519050919050565b600082825260208201905092915050565b600081905092915050565b600082825260208201905092915050565b600081905092915050565b6000613a3d82613b57565b9150613a4883613b57565b9250827fffffffffffffffffffffffffffffffffffffffffffffffffffffffffffffffff03821115613a7d57613a7c613c80565b5b828201905092915050565b6000613a9382613b57565b9150613a9e83613b57565b925082613aae57613aad613caf565b5b828204905092915050565b6000613ac482613b57565b9150613acf83613b57565b925082821015613ae257613ae1613c80565b5b828203905092915050565b6000613af882613b37565b9050919050565b60008115159050919050565b60007fffffffff0000000000000000000000000000000000000000000000000000000082169050919050565b600073ffffffffffffffffffffffffffffffffffffffff82169050919050565b6000819050919050565b82818337600083830152505050565b60005b83811015613b8e578082015181840152602081019050613b73565b83811115613b9d576000848401525b50505050565b60006002820490506001821680613bbb57607f821691505b60208210811415613bcf57613bce613cde565b5b50919050565b613bde82613dae565b810181811067ffffffffffffffff82111715613bfd57613bfc613d6b565b5b80604052505050565b6000613c1182613b57565b91507fffffffffffffffffffffffffffffffffffffffffffffffffffffffffffffffff821415613c4457613c43613c80565b5b600182019050919050565b6000613c5a82613b57565b9150613c6583613b57565b925082613c7557613c74613caf565b5b828206905092915050565b7f4e487b7100000000000000000000000000000000000000000000000000000000600052601160045260246000fd5b7f4e487b7100000000000000000000000000000000000000000000000000000000600052601260045260246000fd5b7f4e487b7100000000000000000000000000000000000000000000000000000000600052602260045260246000fd5b7f4e487b7100000000000000000000000000000000000000000000000000000000600052603160045260246000fd5b7f4e487b7100000000000000000000000000000000000000000000000000000000600052603260045260246000fd5b7f4e487b7100000000000000000000000000000000000000000000000000000000600052604160045260246000fd5b600080fd5b600080fd5b600080fd5b600080fd5b6000601f19601f8301169050919050565b7f4552433732315061757361626c653a20746f6b656e207472616e73666572207760008201527f68696c6520706175736564000000000000000000000000000000000000000000602082015250565b7f5061757361626c653a206e6f7420706175736564000000000000000000000000600082015250565b7f4e6565647320746f206265206f776e6572206f7220746f6b656e5552494f706560008201527f7261746f72000000000000000000000000000000000000000000000000000000602082015250565b7f455243373231456e756d657261626c653a206f776e657220696e646578206f7560008201527f74206f6620626f756e6473000000000000000000000000000000000000000000602082015250565b7f4552433732313a207472616e7366657220746f206e6f6e20455243373231526560008201527f63656976657220696d706c656d656e7465720000000000000000000000000000602082015250565b7f4f776e61626c653a206e6577206f776e657220697320746865207a65726f206160008201527f6464726573730000000000000000000000000000000000000000000000000000602082015250565b7f4552433732313a20746f6b656e20616c7265616479206d696e74656400000000600082015250565b7f4552433732313a207472616e7366657220746f20746865207a65726f2061646460008201527f7265737300000000000000000000000000000000000000000000000000000000602082015250565b7f4552433732313a20617070726f766520746f2063616c6c657200000000000000600082015250565b7f4552433732313a206f70657261746f7220717565727920666f72206e6f6e657860008201527f697374656e7420746f6b656e0000000000000000000000000000000000000000602082015250565b7f5061757361626c653a2070617573656400000000000000000000000000000000600082015250565b7f4552433732313a20617070726f76652063616c6c6572206973206e6f74206f7760008201527f6e6572206e6f7220617070726f76656420666f7220616c6c0000000000000000602082015250565b7f4552433732313a2062616c616e636520717565727920666f7220746865207a6560008201527f726f206164647265737300000000000000000000000000000000000000000000602082015250565b7f4552433732313a206f776e657220717565727920666f72206e6f6e657869737460008201527f656e7420746f6b656e0000000000000000000000000000000000000000000000602082015250565b7f45524337323155524953746f726167653a2055524920736574206f66206e6f6e60008201527f6578697374656e7420746f6b656e000000000000000000000000000000000000602082015250565b7f4552433732313a206d696e7420746f20746865207a65726f2061646472657373600082015250565b7f53616c6520656e64000000000000000000000000000000000000000000000000600082015250565b7f45524337323155524953746f726167653a2055524920717565727920666f722060008201527f6e6f6e6578697374656e7420746f6b656e000000000000000000000000000000602082015250565b7f4552433732313a20617070726f76656420717565727920666f72206e6f6e657860008201527f697374656e7420746f6b656e0000000000000000000000000000000000000000602082015250565b7f4f776e61626c653a2063616c6c6572206973206e6f7420746865206f776e6572600082015250565b7f4552433732313a207472616e73666572206f6620746f6b656e2074686174206960008201527f73206e6f74206f776e0000000000000000000000000000000000000000000000602082015250565b7f4552433732314d657461646174613a2055524920717565727920666f72206e6f60008201527f6e6578697374656e7420746f6b656e0000000000000000000000000000000000602082015250565b7f4552433732313a20617070726f76616c20746f2063757272656e74206f776e6560008201527f7200000000000000000000000000000000000000000000000000000000000000602082015250565b50565b7f5472616e73666572206661696c65642e00000000000000000000000000000000600082015250565b7f507269636520746f6f206c6f7700000000000000000000000000000000000000600082015250565b7f4552433732313a207472616e736665722063616c6c6572206973206e6f74206f60008201527f776e6572206e6f7220617070726f766564000000000000000000000000000000602082015250565b7f455243373231456e756d657261626c653a20676c6f62616c20696e646578206f60008201527f7574206f6620626f756e64730000000000000000000000000000000000000000602082015250565b7f4f6e6c79206f6e6520706572206163636f756e7420616c6c6f77656400000000600082015250565b6144f381613aed565b81146144fe57600080fd5b50565b61450a81613aff565b811461451557600080fd5b50565b61452181613b0b565b811461452c57600080fd5b50565b61453881613b57565b811461454357600080fd5b5056fea2646970667358221220187d84a8d0f348081c174f49c786da261f9517e140f231a89f2e21c3cc74f8e664736f6c63430008060033",
  "immutableReferences": {},
  "source": "// SPDX-License-Identifier: MIT\npragma solidity >=0.8.0 <0.9.0;\n\nimport \"@openzeppelin/contracts/token/ERC721/extensions/ERC721URIStorage.sol\";\nimport \"@openzeppelin/contracts/token/ERC721/extensions/ERC721Enumerable.sol\";\nimport \"@openzeppelin/contracts/token/ERC721/extensions/ERC721Burnable.sol\";\nimport \"@openzeppelin/contracts/token/ERC721/extensions/ERC721Pausable.sol\";\nimport \"@openzeppelin/contracts/access/Ownable.sol\";\nimport \"@openzeppelin/contracts/utils/math/SafeMath.sol\";\nimport \"@openzeppelin/contracts/utils/Counters.sol\";\n\ncontract KrakowMeetup is ERC721URIStorage, ERC721Enumerable, Ownable, ERC721Pausable {\n    using SafeMath for uint256;\n    using Counters for Counters.Counter;\n    \n    Counters.Counter private _tokenIdCounter;\n    \n    uint public MAX_ELEMENTS = 64;\n    uint public PRICE = 0;\n    \n    // operator \n    address public tokenURIOperator;\n    \n    event RequestedTokenURI(uint indexed requestForTokenId);\n \n    // Only contract owner or designated operator\n    modifier canSetTokenURI {\n        require(\n            _msgSender() == owner() || _msgSender() == tokenURIOperator,\n            \"Needs to be owner or tokenURIOperator\"\n        );\n        _;\n    }\n    \n    constructor() ERC721(\"Krakow Meetup\", \"KMU\") {\n        setPaused(true);\n    }\n    \n    function mint(address _to) public payable {\n        require(msg.value >= PRICE, \"Price too low\");\n        require(_totalSupply() <= MAX_ELEMENTS, \"Sale end\");\n        require(balanceOf(_to) == 0, \"Only one per account allowed\");\n        \n        uint id = _tokenIdCounter.current();\n        _tokenIdCounter.increment();\n        _safeMint(_to, id);\n        emit RequestedTokenURI(id);\n    }\n    \n    function _totalSupply() internal view returns (uint) {\n        return _tokenIdCounter.current();\n    }\n    \n    function setPaused(bool state) public onlyOwner {\n        if (state == true) {\n            _pause();\n            return;\n        }\n        _unpause();\n    }\n    \n    function _beforeTokenTransfer(\n        address from,\n        address to,\n        uint256 tokenId\n    ) internal virtual override(ERC721, ERC721Pausable, ERC721Enumerable) {\n        super._beforeTokenTransfer(from, to, tokenId);\n    }\n    \n    function tokenURI(uint256 tokenId) public view virtual override(ERC721, ERC721URIStorage) returns (string memory) {\n        return super.tokenURI(tokenId);\n    }\n\n    function _burn(uint256 tokenId) internal virtual override(ERC721, ERC721URIStorage) {\n        super._burn(tokenId);\n    }\n    \n    function totalMint() public view returns (uint256) {\n        return _totalSupply();\n    }\n\n    function setTokenURI(uint256 tokenId, string memory _tokenURI) public canSetTokenURI {\n        _setTokenURI(tokenId, _tokenURI);\n    }\n    \n    function _setTokenURI(uint256 tokenId, string memory _tokenURI) internal virtual override(ERC721URIStorage){\n        super._setTokenURI(tokenId, _tokenURI);\n    }\n    \n    function setTokenURIOperator(address _tokenURIOperator) public onlyOwner {\n        tokenURIOperator = _tokenURIOperator;\n    }\n    \n    function withdraw(address _address, uint _amount) public payable onlyOwner {\n        uint256 balance = address(this).balance;\n        require(balance > 0);\n        (bool success, ) = _address.call{value: _amount}(\"\");\n        require(success, \"Transfer failed.\");\n    }\n    \n    function tokenOfOwnerByIndex(address owner, uint256 index) public view virtual override(ERC721Enumerable) returns (uint) {\n        return super.tokenOfOwnerByIndex(owner, index);\n    }\n    \n    function supportsInterface(bytes4 interfaceId) public view virtual override(ERC721, ERC721Enumerable) returns (bool) {\n        return super.supportsInterface(interfaceId);\n    }\n\n}",
  "sourcePath": "/Users/msroka/Dev/_blockchain/krakow-meetup-nft/contracts/KrakowMeetup.sol",
  "compiler": {
    "name": "solc",
    "version": "0.8.6+commit.11564f7e.Emscripten.clang"
  },
  "schemaVersion": "3.4.3",
  "updatedAt": "2021-11-21T14:02:40.620Z",
  "networkType": "ethereum",
  "devdoc": {
    "kind": "dev",
    "methods": {
      "approve(address,uint256)": {
        "details": "See {IERC721-approve}."
      },
      "balanceOf(address)": {
        "details": "See {IERC721-balanceOf}."
      },
      "getApproved(uint256)": {
        "details": "See {IERC721-getApproved}."
      },
      "isApprovedForAll(address,address)": {
        "details": "See {IERC721-isApprovedForAll}."
      },
      "name()": {
        "details": "See {IERC721Metadata-name}."
      },
      "owner()": {
        "details": "Returns the address of the current owner."
      },
      "ownerOf(uint256)": {
        "details": "See {IERC721-ownerOf}."
      },
      "paused()": {
        "details": "Returns true if the contract is paused, and false otherwise."
      },
      "renounceOwnership()": {
        "details": "Leaves the contract without owner. It will not be possible to call `onlyOwner` functions anymore. Can only be called by the current owner. NOTE: Renouncing ownership will leave the contract without an owner, thereby removing any functionality that is only available to the owner."
      },
      "safeTransferFrom(address,address,uint256)": {
        "details": "See {IERC721-safeTransferFrom}."
      },
      "safeTransferFrom(address,address,uint256,bytes)": {
        "details": "See {IERC721-safeTransferFrom}."
      },
      "setApprovalForAll(address,bool)": {
        "details": "See {IERC721-setApprovalForAll}."
      },
      "symbol()": {
        "details": "See {IERC721Metadata-symbol}."
      },
      "tokenByIndex(uint256)": {
        "details": "See {IERC721Enumerable-tokenByIndex}."
      },
      "tokenOfOwnerByIndex(address,uint256)": {
        "details": "See {IERC721Enumerable-tokenOfOwnerByIndex}."
      },
      "totalSupply()": {
        "details": "See {IERC721Enumerable-totalSupply}."
      },
      "transferFrom(address,address,uint256)": {
        "details": "See {IERC721-transferFrom}."
      },
      "transferOwnership(address)": {
        "details": "Transfers ownership of the contract to a new account (`newOwner`). Can only be called by the current owner."
      }
    },
    "version": 1
  },
  "userdoc": {
    "kind": "user",
    "methods": {},
    "version": 1
  }
}